:100000000C94FE000C943B010C943B010C943B01BE
:100010000C943B010C943B010C943B010C943B0170
:100020000C943B010C943B010C943B010C943B0160
:100030000C943B010C943B010C943B010C943B0150
:100040000C943B010C943B010C943B010C943B0140
:100050000C943B010C943B010C943B010C943B0130
:100060000C943B010C943B010C943B010C943B0120
:100070000C943B010C943B010C943B010C943B0110
:100080000C943B010C943B010C943B010C943B0100
:100090000C943B010C943B010C943B010C943B01F0
:1000A0000C943B010C943B010C943B010C943B01E0
:1000B0000C943B010C943B010C943B010C943B01D0
:1000C0000C943B010C943B010C943B010C943B01C0
:1000D0000C943B010C943B010C943B010C943B01B0
:1000E0000C943B010C943B010C943B010C943B01A0
:1000F0000C943B010C943B010C943B010C943B0190
:100100000C943B010C943B010C943B010C943B017F
:100110000C943B010C943B010C943B010C943B016F
:100120000C943B010C943B010C943B010C943B015F
:100130000C943B010C943B010C943B010C943B014F
:100140000C943B010C943B010C943B010C943B013F
:100150000C943B010C943B010C943B010C943B012F
:100160000C943B010C943B010C943B010C943B011F
:100170000C943B010C943B010C943B010C943B010F
:100180000C943B010C943B010C943B010C943B01FF
:100190000C943B010C943B010C943B010C943B01EF
:1001A0000C943B010C943B010C943B010C943B01DF
:1001B0000C943B010C943B010C943B010C943B01CF
:1001C0000C943B010C943B010C943B010C943B01BF
:1001D0000C943B010C943B010C943B010C943B01AF
:1001E0000C943B010C943B010C943B010C943B019F
:1001F0000C943B010C943B010C943B0111241FBE59
:10020000CFEFCDBFDFE5DEBF00E00CBF0E940C01E9
:080210000C942A01F894FFCFC1
:10021800CF93DF930F92CDB7DEB7E0E5F0E087EC40
:10022800828383EC858388E1808380915000887085
:10023800898389818823C9F363E080E490E00E9480
:0C02480035018091500088708983FFCF41
:10025400EC010E9440010E943F01CE010E94410135
:06026400CE010E943D01E5
:0C026A00DC0128ED209334006C93089513
:040276000C940000E4
:04027A000E940A01D3
:02027E000895E1
:020280000895DF
:020282000895DD
:00000001FF
